S014000066696E616C6F6666696E616C2E7372656327
S11300000C9434000C943E000C943E000C943E007E
S11300100C943E000C943E000C943E000C943E0064
S11300200C943E000C943E000C943E000C943E0054
S11300300C943E000C943E000C943E000C943E0044
S11300400C943E000C943E000C943E000C943E0034
S11300500C943E000C943E000C943E000C943E0024
S11300600C943E000C943E0011241FBECFEFD8E048
S1130070DEBFCDBF0E947B000C9484000C94000072
S11300801092C50085E08093C40088E18093C1008C
S113009086E08093C20008958091C0008823E4F72D
S11300A08091C600089584B18F6084B985B1807F42
S11300B085B90895823379F028F48033C1F081330F
S11300C031F00895833359F0843369F0089585B18C
S11300D0816085B9089585B1826085B9089585B137
S11300E0846085B9089585B1886085B9089585B11E
S11300F0807F85B908950E9440000E9453000E94A9
S10F01004C000E945A00FBCFF894FFCF83
S9030000FC
